:020000040800F2
:10000000B806002035020008591D0008E11C000850
:10001000E51C0008F71A0008672F00080000000020
:100020000000000000000000000000009123000814
:10003000FB1A000800000000792200085926000879
:100040004F0200084F0200084F0200084F0200084C
:100050004F0200084F0200084F0200084F0200083C
:100060004F0200084F0200084F0200084F0200082C
:100070004F0200084F0200084F0200084F0200081C
:100080004F0200084F0200084F0200084F0200080C
:100090004F0200084F0200084F0200084F020008FC
:1000A0004F0200084F0200084F0200084F020008EC
:1000B0004F0200084F020008FD2800084F02000808
:1000C0004F0200084F0200084F0200084F020008CC
:1000D0004F020008552D00084F0200084F0200088B
:1000E0004F0200084F0200084F02000800F002F81B
:1000F00000F090F80AA090E8000C82448344AAF132
:100100000107DA4501D100F085F8AFF2090EBAE82F
:100110000F0013F0010F18BFFB1A43F0010318473B
:10012000A83A0000C83A0000103A24BF78C878C145
:10013000FAD8520724BF30C830C144BF04680C60ED
:10014000704700000023002400250026103A28BF35
:1001500078C1FBD8520728BF30C148BF0B60704739
:100160006E2900F03B81702900F07D82662903F042
:10017000B081652903F0AD81672903F0AA81612967
:1001800003F0A98103681B0A28BF41F08001692997
:1001900000F0E880642900F0E580752900F0E28035
:1001A0006F2900F00A82782900F04982E92900F0DD
:1001B000A581E42900F0A281F52900F09F81EF29B3
:1001C00000F00782F82900F048820368DB0928BFA5
:1001D00041F08001632900F04B87732900F05087BC
:1001E000E32900F05B87F32900F060870020704767
:1001F0001FB500F0ADFF04000020002102F07CFFDD
:10020000401C60600020002102F060FFE0601FBD24
:1002100010B510BD00F06EFF1146FFF7E9FF02F0C8
:10022000BFFE01F04BF803B4FFF7F2FF03BC01F08F
:1002300093F800000948804709480047FEE7FEE7B9
:10024000FEE7FEE7FEE7FEE7FEE7FEE7FEE7FEE786
:1002500004480549054A064B704700005D26000822
:10026000ED000008B8000020B8060020B802002009
:10027000B80200201CB50C46064B7B446946009032
:10028000204600F0C4F804460020694600F0D2F889
:1002900020461CBDB701000070477047704770B51D
:1002A000044685690068C10601D5302600E0202695
:1002B000C00707D070BDD4E9012130469047206ABD
:1002C000401C20626D1EF6D570BD70B50446856970
:1002D0000078C00707D170BDD4E9012120209047E4
:1002E000206A401C20626D1EF6D570BD09684A0563
:1002F00001D540B27047C905FCD500B27047096806
:100300004A0501D5C0B27047C905FCD580B2704717
:1003100070B50C460546012A05D02878800600D520
:10032000EA69002302E0012305E05B1C934202D24C
:10033000E05C0028F9D1A869E618C01AA861286A0B
:10034000184428622846FFF7AAFF04E0D5E90121F6
:1003500014F8010B9047B442F8D32846FFF7B5FFD5
:1003600070BD00002DE9F041064600241068752993
:10037000314616A510D0FFF7B9FF002802DA404237
:1003800013A507E031688A0701D512A502E04907E5
:1003900004D511A5012401E0FFF7B1FF00210A22D5
:1003A00006F1240709E0B0FBF2FCB0FBF2F302FB1C
:1003B0001C00303078541846491C0028F3D12346DD
:1003C0002A463046BDE8F04100F061BA0000000066
:1003D0002D0000002B0000002000000011680268C2
:1003E000006A530501D508700AE0D30501D50880DD
:1003F00006E0130603D5C217C1E9000200E0086059
:100400000120704701694A1C02610878704700B5F5
:100410008FB0CDE901310021059105497944CDE93D
:1004200003101146684600F029F90FB000BD000026
:10043000E5FFFFFF0A6802F8010B0A607047000041
:100440002DE9FF5F15468A460446DFF8AC80F84484
:100450000027D8E900103E46CDE9001010E03AF838
:1004600016106A4602A800F025FE411C07D021782C
:10047000890603D5E269391891420DD80744761CE4
:100480002078800602D5E069B84205DDAE42E6DBA1
:100490003AF816000028E2D1A069C01BA0612046EE
:1004A000FFF7FDFED8E90010CDE90010002017E0AD
:1004B0003AF818106A4602A800F0FCFDB0F1FF3FC0
:1004C00081460BD000250DF1080B05E0D4E9012190
:1004D0001BF8050090476D1C4D45F7D308F101004E
:1004E000B0428046E4DB206A384420622046FFF7B1
:1004F000ECFEBDE8FF9F00007A3600002DE9F041D8
:100500008046D21D22F007020025D2E90002F5291B
:1005100015A614D0011E72F1000106DA0023D0EBFB
:10052000030063EB020211A608E0D8F800108B0765
:1005300001D50FA602E0490701D50EA601251146F7
:10054000002408F1240704E000F05CF930323A5549
:10055000641C50EA0102F7D12B4632462146404640
:10056000BDE8F04100F093B9000000002D0000004C
:100570002B0000002000000030B4002100F1240412
:1005800008E002F00705D208303542EA4372DB0882
:100590006554491C52EA0305F3D10468002310A2F4
:1005A000250707D5A40600D421B1C46901230DA2F3
:1005B000641EC46130BC00F06AB910B5044621461F
:1005C0001068FFF79CFE02462046BDE8104000235D
:1005D000D2E7D21D22F00701D1E90023CCE70000C9
:1005E0000000000030000000F0B40D46018809054D
:1005F00002D5214C7C4402E01F4C7C440E34002187
:1006000000F1240608E002F00F071209E75D42EA54
:1006100003721B097754491C52EA0307F3D102788D
:100620000023120704D5702D06D009B1022311341E
:100630002246F0BC00F02BB901231034F8E770B566
:1006400004460D4621461068FFF759FE024629462A
:100650002046BDE870400023C6E7D21D22F0070304
:10066000D3E90023C0E70368126843F02003036066
:100670000823C3610023B7E7DC3400002DE9F05FF5
:10068000894604464FF0000ADFF874B1FB44C0F815
:1006900020A02046E1688847002874D0252806D08D
:1006A000D4E901219047206A401C2062F1E700262E
:1006B0005F462046E16888472028054607DB312D44
:1006C00005D2781910F8200C08B10643F1E7B007FD
:1006D00001D526F00406C4F81CA00027C4F818A011
:1006E0002A2D09D0284602F054FC38B304EB8708C1
:1006F000303DC8F8185019E059F8041B204604EBA7
:1007000087029161E1688847012F054618D1E069A9
:10071000002820DA26F020061DE0D8F8180000EBAB
:10072000800005EB40003038C8F818002046E1682A
:100730008847054602F02DFC0028EED1012F0AD093
:100740002E2D08D12046E16888477F1C0546022FE0
:1007500046F02006C4DBA069002803DA404246F0D8
:100760000106A061F00701D026F010066C2D0BD019
:10077000682D09D04C2D39D06A2D35D0742D35D047
:100780007A2D33D016E038E0E1682F4620468847BE
:10079000B842054609D16C2F26D04FF48060E1683D
:1007A000064320468847054604E06C2F1AD04FF4D4
:1007B000807006430DB3A5F14100192802D82035F9
:1007C00046F400664A462946204626604E46FFF714
:1007D000C7FC80B101280BD0F61D26F0070000F100
:1007E000080956E74020E4E78020D8E70020D6E754
:1007F00006F104094DE7284652E7206ABDE8F09F5C
:100800006C34000030B5B0F10A024FEA900E71F17D
:1008100000034EEA817EB0EB0E0061EB91014FEADE
:10082000101E4EEA017E10EB0E0041EB11114FEA53
:10083000102E4EEA016E10EB0E0041EB11214FEA33
:10084000104E4EEA014E10EB0E0041EB11414018E4
:1008500041F100014FEAD00040EA41704FEAD10176
:1008600010EB80054FEA810444EA907444EB0104E4
:100870006D1944EB0404521BA3414FF0000348BF21
:100880000A3200D530BD401C41F1000130BD2DE9D8
:10089000F0470D4699469246044600F12408016847
:1008A000880604D5E06921F01001216000E00120F4
:1008B000A84201DD471B00E00027A1697A1902EB7D
:1008C0000900081AA0612078C00602D42046FFF76C
:1008D000E6FC002608E0D4E901211AF8060090475A
:1008E000206A401C761C20624E45F4DB2078C0064E
:1008F0000AD52046FFF7D3FC06E0D4E901213020D9
:100900009047206A401C2062381EA7F10107F4DCE2
:1009100007E0D4E9012118F805009047206A401C3F
:100920002062281EA5F10105F3DC2046FFF7CDFC6F
:100930002078000602D50220BDE8F0870120FBE701
:1009400070472DE9FF4F0C461E464FF0FF378BB026
:10095000D2E90001DDF860800A908A46C1F30A55A9
:1009600005B93D46002108464FF00000BAF1000FDE
:1009700000F4400005DA00EB80004FF4400101EA8A
:1009800050004FEA9059B9F1010F00DDB9460A98BD
:1009900050EA4A000ED044F61050A5F2FF35454308
:1009A0002F14B8F1000F1ED07542291E1EDDC9F1AB
:1009B00000021CE0B8F1010F4FF0000001D030211F
:1009C00003E0F24305E02154401CB042FBDB30461B
:1009D0000022002121540B99C1F80880C1E90020B0
:1009E0000FB0BDE8F08FBD1B6D1CDEE74A4600DA94
:1009F000694206A800F0F0FB06AB93E8070003ABE2
:100A000083E8070050460A9900F0ADFC8DE8070026
:100A1000A0F500501F3800900398002D0ADD42F227
:100A20001F014A460844002303A90390684600F0CA
:100A300016FF09E0A0F500504A461F38002303A91D
:100A40000390684600F020FF8DE807000004000CCA
:100A500003D04FF0FF30410800E01046B8F1000F1E
:100A600003D00022009215461EE0751E05D4FFF744
:100A7000C9FE303262556D1EF9D5B34601220843D6
:100A800002D000227F1C04E02078302801D100220F
:100A90007F1E002A099784D01DE0112D07DAFFF789
:100AA000B1FE303262556D1C50EA0102F5D10843A7
:100AB00002D00098C8B10EE00021681E05E0235C5A
:100AC000625C63542254401E491C8142F7DBAB46F2
:100AD000A81B401E0990002004F80B000B98099AEF
:100AE000C0F80880C0E9002B7AE711264FF0000813
:100AF00057E72DE9F04F88460446D21D22F0070142
:100B000091B0D1E90001CDE90A0102F02EFA0246C6
:100B10000B98C00F01D02D2007E02068810701D578
:100B20002B2002E0202101EAC000032A099001D015
:100B3000072A05DB03464146204600F00DFB0BE18A
:100B40002078800601D5E06900E00620B8F1650F45
:100B5000814606D0B8F1660F18D0B8F1670F70D192
:100B600031E00020B9F1110F009001DB112301E009
:100B700009F101030AAA01A90CA8FFF7E2FEDDE9C9
:100B80000C70002609F10105834647E001204B4621
:100B900000904FF000470AAA01A90CA8FFF7D1FE68
:100BA000DDE90DB00C995D46002610B909F1010090
:100BB0000D18B9EB050003D4C0F1FF3609F10105AA
:100BC000A5EB09002BE0B9F1010F01DA4FF00109A3
:100BD0000020B9F1110F0090484601DD112300E01B
:100BE00003460AAA01A90CA8FFF7ABFEDDE90C70C9
:100BF0004D4600268346207800070AD4AB4500DA2C
:100C00005D4601A8012D04DD411911F8011C3029B0
:100C100007D04F4502DA17F1040F04DA01208246AB
:100C20000FE06D1EEEE7002F02DCED1B3E4403E0FB
:100C3000781CA84200DD7D1CB81B00F1010A4FF0B2
:100C400000472078000703D4AA4501DB4FF0FF3AA4
:100C50000021B7F1004F0DF143088DF8431024D067
:100C600002202B23002F01DA7F422D230A21021EAE
:100C7000A0F1010000DC5FB197FBF1FC97FBF1F202
:100C800001FB1C7C17460CF1300C08F801CDEEE797
:100C9000A8F1010003702188090501D5452100E074
:100CA0006521A0F1010800F8011C09980FA9A1EB2A
:100CB0000807FF1D00B10120411901EBEA70A1698D
:100CC0003844081A401EA0612078C00602D420468D
:100CD000FFF7E5FA099828B1D4E901219047206A85
:100CE000401C20622078C00622D52046FFF7D7FAA4
:100CF0001EE0002E04DBB34502DD01A8805D00E0AC
:100D00003020D4E901219047206A401C2062761CE3
:100D1000AAF101005FEA000A0AD100F019FAC068DE
:100D20000168405CD4E901219047206A401C2062A0
:100D3000281EA5F10105DCDC07E0D4E9012118F843
:100D4000010B9047206A401C2062381EA7F1010762
:100D5000F3DC2046FFF7B9FA032011B041E60000AA
:100D60002DE9F04F04460D46D21D22F0070089B050
:100D7000D0E900974846394602F0F7F80246F80FE6
:100D800001D02D2307E02068810701D52B2302E045
:100D9000202101EAC0038DF820300BB1012000E0D2
:100DA0000020032A824601D0072A04DB2946204678
:100DB00000F0D2F93FE12078800601D40D2500E053
:100DC000E569C7F30A560D2D49DA00214FEA175B92
:100DD00008464FF00000002F00F4400007DA00EB57
:100DE00080004FF4400100EBD07001EA60008115F3
:100DF000012901DD4FF0FF3100224FEA850CBCF1E3
:100E0000180F06D31346ACF118004FF08052C240C1
:100E100003E04FF4801323FA0CF30CF10C0CBCF13B
:100E2000200F04D3ACF1200C09FA0CF001E007FA12
:100E30000CF000294FF0004801DD18B90FE00ED189
:100E400040450CD319EB02095F4121B9404502D15D
:100E50009F4329EA0209BBEB175F00D0761C20886C
:100E6000000502D57B48784402E07A487844193876
:100E700008AA302302F80A30037C0AF10101002E8F
:100E80000AF1020A53546A4602DC4FF0300101E0D5
:100E90004FF031014FF001088DF8001002D0A6F29A
:100EA000FF3603E059EA470100D06B4E002D02DC0B
:100EB0002178090704D54FF002082E218DF8011082
:100EC000C44600210BE0C7F303433F01C35C491C48
:100ED0006D1E02F80830052908F1010801DA002D1D
:100EE000F1DC00210CE000EB1973491C1B786D1E2E
:100EF000082902F808304FEA091908F1010801DA57
:100F0000002DF0DC21688B0602D516E0A8F101085F
:100F1000E04505DD02EB080313F8013C302BF5D06A
:100F2000B8F1000F09DD02EB080313F8013C2E2B8A
:100F300003D1090701D4A8F10108002D05DD3E21E8
:100F400002F808106D1E08F10108407C002E02F81E
:100F5000080008F1010804DA2D20764202F80800A2
:100F600002E02B2002F808000A214FF47A70864232
:100F700008F101080BDB96FBF0F3303302F8083080
:100F800096FBF0F308F1010800FB136601E0642E04
:100F90000CDB642096FBF0F3303302F8083096FB4C
:100FA000F0F308F1010800FB136601E00A2E06DBEE
:100FB00096FBF1F0303002F8080008F1010896FBCA
:100FC000F1F001FB1060303002F80800A16908F16F
:100FD000010808EB050202EB0A00081AA06120785C
:100FE000C00602D42046FFF75AF9216A08AE01EB89
:100FF0000A00206204E0D4E9012116F8010B9047B1
:10100000BAF1010AF7D22078C00602D52046FFF7D0
:1010100046F96E4609E016F8010B3E280FD0D4E9D8
:1010200001219047206A401C2062B8F10108F2D2E9
:101030002046FFF74AF909B00320BDE8F08F206A87
:101040002844206203E0D4E90121302090476D1E3E
:10105000EBD3F8E7B62C000002FCFFFF10B54369A4
:1010600013B1AFF3008001E0FFF752F9012010BD8A
:10107000127800F124010A7000224A700122EDE783
:1010800011684FF0FF32E9E710B5436913B1AFF3D0
:10109000008001E0FFF7D4F9012010BD128800F1B3
:1010A000240182840022C2840122EDE711684FF0FE
:1010B000FF32E9E770B516460C46054600F040F8E9
:1010C000036893F80101012806D0FF2C0FD8185DA2
:1010D00068B101202C7070BDD3F80701324621465B
:1010E00003F2071303442846BDE8704018474FF049
:1010F000FF3070BD754600F0EBF8AE46050069465E
:10110000534620F00700854618B020B5FFF7A0F839
:10111000BDE820404FF000064FF000074FF00008F8
:101120004FF0000B21F00701AC46ACE8C009ACE879
:10113000C009ACE8C009ACE8C0098D4670470000A2
:1011400010B500F005F8001D10BD00BFAD1F000078
:1011500000487047780000202DE9F0411F46044602
:1011600003260168072A01F4006004DB08B116A514
:1011700005E016A503E008B115A500E015A521F0CE
:1011800010002060A069C01EA0610FB1401EA061C8
:101190002046FFF784F84FB1D4E901213846904743
:1011A000206A401C2062C01C206206E0206AFAE728
:1011B000D4E9012115F8010B9047761EF8D220469C
:1011C000FFF783F8BDE8F0814E414E006E616E007E
:1011D000494E4600696E66002DE9F0478146164685
:1011E0008AB0354878440DC88DE80D0032487844FF
:1011F000801C03AC0DC884E80D0041F69B30084408
:10120000372190FBF1F290FBF1F5A5F1800501FB90
:1012100012041B3C02D56442012000E00020DFF8EC
:1012200098A080460027FA44AAF1BE0A0EE0E00723
:101230000AD03246684607EB470101230AEB8101D9
:1012400000F022FB8DE8070064107F1C002CEED11B
:10125000194F7F44AE3F19E0E80715D007EB0410A3
:101260000DF1180A90E80E008AE80E00C068F042FE
:1012700001D1981908903246012306A903A800F06D
:1012800003FB03AB83E807006D10641C002DE3D162
:101290004FF0010332466946B8F1000F03A802D0AF
:1012A00000F0DDFA01E000F0EFFAC9E90001C9F849
:1012B00008200AB0BDE8F087C829000010B5044630
:1012C000AFF300802046BDE81040FEF7ACBF000041
:1012D00000487047580000204FF0013C50F8042BA4
:1012E00051F8043B9A4221D1A2EB0C03934313EA39
:1012F000CC1317D150F8042B51F8043B9A4215D166
:10130000A2EB0C03934313EACC130BD150F8042B3C
:1013100051F8043B9A4209D1A2EB0C03934313EA20
:10132000CC13DBD04FF00000704700BFD01A01BAD9
:10133000B1FA81F101F0180122FA01F0CB40C1F1BC
:101340002001DBB2C0B2C01A2CFA01F3D11A9143CA
:1013500011EAC311E6D1704701491820ABBEFEE780
:101360002600020070475FEA400C08BF91F0000FB2
:101370004FEA8C234FEAC12243EA51514FEA1C50F5
:1013800018BF00F5F0404FEA300018BF41F00041AF
:101390005FEA6C5C00F02980BCF1FF3F08BF40F0C1
:1013A00080407047130C06BF12044FF0100C4FF032
:1013B000000C130E04BF12020CF1080C130F04BF33
:1013C00012010CF1040C930F04BF92000CF1020CFB
:1013D000D30F04BF52000CF1010C11464FF0000274
:1013E000A0F11F00A0EB0C00704711F0004F08BFE8
:1013F000704731F000413FF4D5AF0B0C06BF090434
:101400004FF0100C4FF0000C0B0E04BF09020CF152
:10141000080C0B0F04BF09010CF1040C8B0F04BF67
:1014200089000CF1020CCB0F04BF49000CF1010C38
:10143000CCF12003A0EB0C0022FA03F302FA0CF229
:1014400041EA030100F10100704720F07F4C80EA7F
:10145000030023F07F47ACEB070303F57C5300F058
:10146000004003F1FF032DE980494FEA154B09B411
:101470004FEA144325EA0B4E24EA03480FF20426F0
:1014800006EB132749083E785FEA320203FB066742
:10149000C7F5000707FB06F64FEA54374FEAD64672
:1014A00006F1020607FB066CCCF1005C4FEA1C4714
:1014B0002CEA074C07FB06F40CFB06F504EB15467B
:1014C0004FEA961634BF00204FF000404FEAD13764
:1014D00006FB07FC4FEA1C4C0CFB0BF7D21B03FB73
:1014E0000CF761EB07010CFB0EF7B0EB074072EB5A
:1014F00017420CFB08F734BFA2EB0742B2EB0742DE
:1015000061EB17414FEA0C444FEA910706FB07FCD9
:101510004FEA1C4C0CFB0BF7B0EBC74072EB573299
:1015200003FB0CF734BFA2EBC742B2EBC74261EB3F
:1015300057310CFB0EF7B0EBC70072EB57720CFB88
:1015400008F734BFA2EBC702B2EBC70261EB5771D9
:10155000039F4FEA816141EA921104EBCC044FEA08
:10156000D1374FEA826206FB07FC42EA90124FEA4B
:1015700080604FEA1C4C0CFB0BF7D21B03FB0CF7F3
:1015800061EB07010CFB0EF7B0EB074072EB174263
:101590000CFB08F734BFA2EB0742B2EB074261EB4A
:1015A00017414FEA8C554FEA910704EB9C2406FB48
:1015B00007FC4FEA1C4C0CFB0BF7B0EBC74072EB7F
:1015C000573203FB0CF734BFA2EBC742B2EBC74262
:1015D00061EB57310CFB0EF7B0EBC70072EB5772A3
:1015E0000CFB08F734BFA2EBC702B2EBC70261EBFA
:1015F000577115EB4C254FEA816141EA92114FEA90
:1016000082624FEAD13742EA901206FB07FC44F1AE
:1016100000044FEA80604FEA1C4C0CFB0BF7D21B16
:1016200003FB0CF761EB07010CFB0EF7B0EB074077
:1016300072EB17420CFB08F734BFA2EB0742B2EB88
:10164000074261EB174115EB1C154FEA813141EA66
:1016500092414FEA823242EA90424FEA80304FEAAA
:101660000C7644F1000448EA03434EEA0B484FF07D
:10167000000EB2EB080C71EB030724BF624639463B
:101680004EEB0E0E4FF0000B0018524149414BEB50
:101690000B0BB2EB080C71EB03077BF1000B24BFC3
:1016A000624639464EEB0E0E4FF0000B00185241C9
:1016B00049414BEB0B0BB2EB080C71EB03077BF1D1
:1016C000000B24BF624639464EEB0E0E51EA02076C
:1016D00018BF46F0010616EB0E7655F1000254F1E4
:1016E000000103D5BDE88901BDE80088BDE8890196
:1016F000BDE80048B619524141EB0101A3F10103D5
:10170000704780807F7E7D7C7B7A7978777676756E
:101710007473727171706F6E6E6D6C6C6B6A6A69E6
:101720006868676666656464636362616160605F80
:101730005F5E5E5D5D5C5C5B5B5A5A5959585857F9
:101740005756565555555454535352525251515061
:1017500050504F4F4F4E4E4D4D4D4C4C4C4B4B4BB4
:101760004A4A4A49494948484847474747464646FA
:101770004545454444444443434343424242424135
:101780004141002B9C4630D477002BD01CB54FEA4A
:10179000370703B44FF010004FF01001BAF1000FFB
:1017A00006D0BCF1000FDCBF40F0080040F008019B
:1017B0004FF000000FBCBDE810400BF1010BBBF176
:1017C000010F08BF5FEA170722BF12F1010211F1F2
:1017D00001014FF0004143F1000300F0004043EAF3
:1017E00000007047F9D35708D0E746EA064613F1E0
:1017F000400F4FEA16461FDD13F1200FDFBF1643DF
:101800000A46002120335B42BED0C3F1200746EADE
:10181000064602FA07F74FEA164646EA0706C3F1FC
:10182000200722FA03F201FA07F721FA03F14FF039
:10183000000342EA0702A7E746EA020646EA06462E
:101840004FEA164646EA0106BCBF46EA0646360C93
:101850004FF000034FF000024FF0000194E72DE934
:10186000804C9A46934670B491E8380007C831EA34
:10187000400C48BF34EA430C03D5FFF7E6FDFFF701
:1018800080FFF0BCBDE8008C2DE9804C9A46934661
:1018900070B491E8380007C810F0804F08BF13F00B
:1018A000804F03D100F005F8FFF76BFFF0BCBDE8F7
:1018B000008C20F07F4780EA030023F07F4C07EB89
:1018C0000C03A3F57C5300F00040A3F1FE0392F05B
:1018D000000F00F0B38095F0000F00F077802DE945
:1018E00001494FEA11404FEA144621EA004800FB43
:1018F00006FC24EA064708FB06F607FB08F800FB8F
:1019000007F718EB06484CEB164C4FEA124B18EB56
:1019100007484FEA15464CEB174022EA0B4E0BFBEB
:1019200006FC25EA06470EFB06F607FB0EFE0BFB40
:1019300007F71EEB064E4CEB164C4FF000061EEB65
:10194000074E4CEB174B18EB0B0840F1000018EB5F
:101950000E0B58EB000840F100008F1A4FF0000109
:101960003CBFC943661B14BFB5EB040C00213CBF50
:10197000C943F61B4FEA17444EEA8E0E27EA044588
:101980004FEA1C4704FB07622CEA074C05FB07F7EC
:101990000CFB05F604FB0CFC16EB074642EB17426A
:1019A00016EB0C4642EB1C421BEB060658EB020200
:1019B000414146EA9E0601D5BDE80189B61952416A
:1019C00041EB0101A3F10103BDE801894FEA144590
:1019D0004FEA114724EA054621EA074C05FB07F4C4
:1019E00006FB07F70CFB06F105FB0CFC11EB0741AE
:1019F00044EB17444FEA124711EB0C4144EB1C44F3
:101A000022EA074C05FB07F206FB07F70CFB06F67C
:101A100005FB0CFC16EB074642EB174216EB0C4697
:101A200042EB1C456A1854F1000148BF7047B619D3
:101A3000524141EB0101A3F10103704795F0000F02
:101A400037D04FEA11424FEA144721EA024624EA0E
:101A5000074C02FB07F106FB07F70CFB06F402FB41
:101A60000CFC14EB074441EB17414FEA154714EB0C
:101A70000C4441EB1C4125EA074C02FB07F506FB31
:101A800007F70CFB06F602FB0CFC16EB074645EBD2
:101A9000174516EB0C4645EB1C42121951F100019B
:101AA00048BF7047B619524141EB0101A3F1010350
:101AB00070474FEA14454FEA114724EA054621EAE8
:101AC000074C05FB07F106FB07F70CFB06F24FF08E
:101AD000000605FB0CFC12EB074241EB174112EB31
:101AE0000C4251EB1C4148BF7047921841EB010179
:101AF000A3F10103704700BFFEE7704710B505482A
:101B000000F08BFF04B20021024801F065F8204686
:101B100010BD00000004004000B587B00121022084
:101B200000F0ACFB0121042000F0B8FB48208DF848
:101B30001B00C020ADF8180003208DF81A0006A97C
:101B40001B4800F039F80020ADF81200ADF80E0087
:101B50004FF6FF70ADF810000020ADF80C008DF8C6
:101B6000140003A9134801F065F8684600F0C0FFAF
:101B70000020ADF800000F20ADF8080069460D48C0
:101B800000F060FF0420ADF800000F20ADF8080061
:101B90006946084800F056FF00231A46032105480D
:101BA00000F01AFF0121034800F00AFF07B000BD52
:101BB00000080140000400402DE9F04102460025E4
:101BC0000026002000230024002791F803C00CF019
:101BD0000F0591F803C00CF0100CBCF1000F03D0FE
:101BE00091F802C04CEA050591F800C0BCF1000F65
:101BF00031D0146800202BE04FF0010C0CFA00F3F8
:101C0000B1F800C00CEA03069E4220D183004FF0D9
:101C10000F0C0CFA03F7BC4305FA03FC4CEA04046E
:101C200091F803C0BCF1280F06D14FF0010C0CFA5B
:101C300000FCC2F814C00AE091F803C0BCF1480FE0
:101C400005D14FF0010C0CFA00FCC2F810C0401C8A
:101C50000828D1D31460B1F800C0BCF1FF0F34DD07
:101C6000546800202EE000F1080C4FF0010808FA3B
:101C70000CF3B1F800C00CEA03069E4221D18300A8
:101C80004FF00F0C0CFA03F7BC4305FA03FC4CEAC7
:101C9000040491F803C0BCF1280F05D100F1080C31
:101CA00008FA0CF8C2F8148091F803C0BCF1480F90
:101CB00007D100F1080C4FF0010808FA0CF8C2F83F
:101CC0001080401C0828CED35460BDE8F0814161EB
:101CD0007047016170470AB1016100E041617047DE
:101CE00000BFFEE700BFFEE708B50121042000F0B9
:101CF000D5FA10208DF803003020ADF80000032045
:101D00008DF8020069460348FFF756FF00F062FABB
:101D100008BD00000008014010B50446002C0BDB94
:101D200010210C48FFF7D5FF20210A48FFF7CFFF0D
:101D3000A0B200F099FA0BE010210648FFF7C7FFA8
:101D400020210448FFF7C5FF614288B200F08CFAF9
:101D500010BD0000000801407047000070B5002170
:101D600000230F22C47804B3154C246804F4E06403
:101D7000C4F5E064210AC1F10403CA40447804FABE
:101D800003F184781440214309010E4C0678A155D3
:101D9000047804F01F050124AC4005786D11AD00F6
:101DA00005F1E025C5F8004109E0047804F01F05BD
:101DB0000124AC40044D0678761145F8264070BDEC
:101DC0000CED00E000E400E080E100E002490143A6
:101DD000024A1160704700000000FA050CED00E0B7
:101DE00070B500240EE00021204600F0F0F8002538
:101DF00004E0002000F08DF9681CC5B2802DF8DBEE
:101E0000601CC4B2082CEEDB70BD000008B50121D7
:101E1000082000F043FA14208DF8030003208DF809
:101E200002004FF48070ADF8000069460A48FFF7E1
:101E3000C3FE4FF40070ADF8000069460648FFF796
:101E4000BBFE012211020448FFF745FF01225102A7
:101E50000148FFF740FF08BD000C014070B5054682
:101E6000002415E08020204100EA05024FF40071B3
:101E70000E48FFF730FF012211020C48FFF72BFF3D
:101E800000224FF480710948FFF725FF601CC4B29F
:101E9000082CE7DB012211020448FFF71CFF002297
:101EA0004FF480710148FFF716FF70BD000C014030
:101EB00010B5012251020A48FFF70DFF012211025D
:101EC0000748FFF708FF00224FF400710448FFF7AE
:101ED00002FF00224FF480710148FFF7FCFE10BDA5
:101EE000000C014010B500224FF400710648FFF7C6
:101EF000F2FE012211020448FFF7EDFE0122510219
:101F00000148FFF7E8FE10BD000C014070B5002449
:101F100006E0002500E06D1CB5F57A7FFBD3641C5C
:101F2000B4F57A7FF5D3FFF771FFAE2000F0E1F84A
:101F3000D52000F0DEF8802000F0DBF8A82000F0CB
:101F4000D8F83F2000F0D5F8D32000F0D2F80020D8
:101F500000F0CFF8402000F0CCF8A12000F0C9F844
:101F6000C82000F0C6F8DA2000F0C3F8122000F014
:101F7000C0F8812000F0BDF8CF2000F0BAF8D920D9
:101F800000F0B7F8F12000F0B4F8DB2000F0B1F871
:101F9000302000F0AEF8A42000F0ABF8A62000F04E
:101FA000A8F88D2000F0A5F8142000F0A2F8AF20CA
:101FB00000F09FF8FFF714FF70BD10B50246012036
:101FC00000E050430B1EA1F10101FAD110BD70B524
:101FD00005460C4645F0B00000F08BF8102141EAB0
:101FE000141000F086F804F00F0000F082F870BDC5
:101FF0002DE9F04105460E461746721ED206110E17
:102000006A1E5206100EFFF7E2FF002409E0A7F156
:102010002001134A02EB0111085D00F07AF8601C00
:10202000C4B2082CF3DB721ED206110E6A1E012305
:1020300003EB4202D0B2FFF7CAFF00240BE0A7F186
:102040002001074A02EB011204F10801505C00F084
:1020500060F8601CC4B2082CF1DBBDE8F081000020
:10206000DA3400082DE9F0478146884615461E46B9
:10207000002D06DB2B2241464846FFF7B9FF2F46CD
:1020800005E02D2241464846FFF7B2FF6F4200248B
:1020900017E0301B411E0A20FFF78FFFB7FBF0F05F
:1020A0000A21B0FBF1F201FB120000F1300A08EB4B
:1020B0000400401CC1B252464846FFF799FF601C1D
:1020C000C4B2B442E5DBBDE8F0872DE9F041074634
:1020D0000E461546002407E02A5D3019C1B2384685
:1020E000FFF786FF601CC4B2285D0028F4D1BDE86C
:1020F000F08110B50446FFF7DBFE7820FFF7AEFE57
:102100000020FFF7ABFE2046FFF7A8FEFFF7EAFE30
:1021100010BD10B50446FFF7CBFE7820FFF79EFEFA
:102120004020FFF79BFE2046FFF798FEFFF7DAFE00
:1021300010BD00002DE9F04105460C46052C0ADDD6
:10214000611F1D4A32F811104942481B01F068F81E
:102150001A49086007E0184931F81410481B01F0CB
:102160005FF816490860154801681548006801F0D5
:102170006FF80746134801681048006801F034F909
:10218000804611480168404601F062F8064639462B
:1021900000F0C8FF0D490860084601680C48006857
:1021A00000F0C0FF0A49086004480068054908605B
:1021B00007480068BDE8F0813600002014000020C8
:1021C0002C000020180000202800002024000020FF
:1021D0002000002000B589B00121084600F04EF82B
:1021E0000121042000F05AF818208DF82300042063
:1021F000ADF8200003208DF8220008A91948FFF748
:10220000DBFC4FF0804000F085FC0020ADF81A00A8
:10221000ADF816006320ADF818002320ADF81400C7
:1022200000208DF81C0005A94FF0804000F002FD51
:1022300001A800F0C5FC6020ADF804000020ADF856
:102240000C000120ADF806000020ADF80A0001A93D
:102250004FF0804000F064FC0121880700F0B0FBE3
:1022600009B000BD0008014010B5044621464FF0FA
:10227000804000F0AFFC10BD7047000029B1064A55
:10228000D2690243044BDA6104E0034AD269824313
:10229000014BDA61704700000010024029B1064A84
:1022A00092690243044B9A6104E0034A92698243B3
:1022B000014B9A61704700000010024030B50021C8
:1022C0000022002400232D4D6D6805F00C0121B182
:1022D000042905D0082923D105E0294D056022E015
:1022E000274D05601FE0254D6D6805F47012234DE4
:1022F0006D6805F48034022505EB92421CB9214D2E
:10230000554305600BE01D4D6D6805F400351DB1AA
:102310001C4D5543056002E0194D5543056002E030
:10232000174D056000BF00BF144D6D6805F0F0014A
:102330000909154D6B5C0568DD4045600F4D6D6802
:1023400005F4E061090A104D6B5C4568DD4085606D
:102350000A4D6D6805F46051C90A0B4D6B5C456808
:10236000DD40C560054D6D6805F44041890B074DA2
:102370006B5CC568B5FBF3F5056130BD001002402C
:1023800000127A0000093D0000000020100000202B
:102390007047000000B587B001218804FFF76EFF89
:1023A00001210820FFF77AFF18208DF81B004FF459
:1023B0008060ADF8180003208DF81A0006A91A48AD
:1023C000FFF7FAFB4FF4165002900020ADF814000E
:1023D0000C20ADF812000020ADF81000ADF80E0092
:1023E000ADF80C0002A9114800F048FD012240F2AE
:1023F00025510E4800F01CFD4FF4A060FFF7E6FCED
:1024000027208DF8040001208DF807008DF80500C5
:102410008DF8060001A8FFF7A1FC0121034800F098
:10242000C4FC07B000BD0000000C014000480040A3
:102430000FB400B59BB01DA8019002A8019A1C9989
:10244000FDF718FF0020019002A800F013F81BB060
:102450005DF814FB10B504462146054800F07FFDE9
:1024600000BF8021024800F0ACFC0028F9D010BD6C
:102470000048004070B50446002504E0605DFFF7A9
:10248000E9FF681CC5B2605D0028F7D170BD00008F
:10249000014800787047000042000020054800789D
:1024A000012804D100200349087001207047002052
:1024B000FCE700004300002000B587B0012188033D
:1024C000FFF7ECFE01210420FFF7E8FE18208DF84D
:1024D0001B004FF40070ADF8180003208DF81A00AF
:1024E00006A92148FFF768FB48208DF81B004FF430
:1024F0008060ADF8180003208DF81A0006A91A486C
:10250000FFF75AFB4FF4165002900020ADF814006C
:102510000C20ADF812000020ADF81000ADF80E0050
:10252000ADF80C0002A9114800F0A8FC012240F20D
:1025300025510E4800F07CFC4FF4A060FFF746FCEC
:1025400025208DF8040001208DF807008DF8050086
:102550008DF8060001A8FFF701FC0121034800F0F7
:1025600024FC07B000BD0000000801400038014015
:1025700010B500F001F810BD0CB5002001900090DE
:102580003348006840F480303149086000BF30486B
:10259000006800F4003000900198401C0190009801
:1025A00018B90198B0F5A06FF1D12948006800F47E
:1025B000003010B10120009001E000200090009850
:1025C000012843D12348006840F0100021490860E9
:1025D0000846006820F0030008600846006840F0E4
:1025E000020008601A484068194948600846406877
:1025F00048600846406840F480604860084640688B
:1026000020F47C1048600846406840F4E8104860B8
:102610000846006840F08070086000BF0C48006801
:1026200000F000700028F9D00948406820F003004D
:10263000074948600846406840F00200486000BF13
:102640000348406800F00C000828F9D10CBD0000D8
:1026500000100240002002407047000010B51348EF
:10266000006840F0010011490860084640681049C0
:1026700008400E494860084600680E4908400B496A
:1026800008600846006820F480200860084640681A
:1026900020F4FE0048604FF41F008860FFF768FFD9
:1026A0004FF000600449086010BD000000100240B7
:1026B0000000FFF8FFFFF6FE08ED00E0F0B50C4665
:1026C000154600220021068C4FF6FE773E40068418
:1026D000028B018C4FF60C7632407E1C06EA031604
:1026E0002E433243104EB0420ED0104EB0420BD0AB
:1026F000B0F1804F08D00E4EB04205D00D4EB04222
:1027000002D00D4EB04206D14FF6FD76314044F076
:102710000106314305E04FF6F576314044F00106FD
:10272000314302830184F0BD002C0140003401409C
:102730000004004000080040000C0040F0B50C46CA
:102740001546002200210026078C4FF6EF7C07EA91
:102750000C070784028B018C4FF6FF7707EA0416FB
:1027600040F6FF473A404FF6FF7707EA03373A4310
:102770004FF6FF7707EA05273A43114FB8420ED0CC
:10278000104FB8420BD0B0F1804F08D00E4FB84276
:1027900005D00E4FB84202D00D4FB84206D14FF6C9
:1027A000DF77394046F01007394305E04FF65F7791
:1027B000394044F01007394302830184F0BD000022
:1027C000002C01400034014000040040000800409B
:1027D000000C0040F0B50C461546002200210026F2
:1027E000078C4FF6FF6C07EA0C070784828B018C7D
:1027F0004FF6FF7707EA04264FF60C773A404FF67C
:10280000FF7707EA03172F433A43114FB8420ED020
:10281000104FB8420BD0B0F1804F08D00E4FB842E5
:1028200005D00E4FB84202D00D4FB84206D14FF638
:10283000FF57394046F48077394305E04FF2FF57A0
:10284000394044F48077394382830184F0BD00002D
:10285000002C01400034014000040040000800400A
:10286000000C0040F0B50C46154600220021002661
:10287000078C4EF6FF7C07EA0C070784828B018CDD
:102880004FF6FF7707EA043640F6FF473A404FF627
:10289000FF7707EA05273A434FF6FF7707EA033742
:1028A0003A43114FB8420ED0104FB8420BD0B0F19E
:1028B000804F08D00E4FB84205D00E4FB84202D01C
:1028C0000D4FB84206D14DF6FF77394046F4805798
:1028D000394305E047F6FF57394044F48057394300
:1028E00082830184F0BD0000002C014000340140CF
:1028F0000004004000080040000C004010B5012119
:10290000254800F08DF8012844D1FFF7F7F8404240
:1029100000B2224908800846B0F9001020A0FFF755
:1029200087FD20480088401C1E4908801E4890F9F9
:1029300000101A48B0F90000FFF7FCFB044600F055
:1029400053FC00B2194908800846B0F90000642819
:1029500001DD642008801548B0F9000010F1640F13
:1029600003DA6FF06300114908801048007840B224
:10297000FFF7D2F90B480088052807DB0748B0F9B4
:1029800000000B4908800020064908800121024808
:1029900000F013F810BD00000008004048000020BF
:1029A00025640A004A000020350000204C00002069
:1029B00046000020CA4302827047CA430282704721
:1029C00021B1028842F00102028004E002884FF641
:1029D000FE731A4002807047F0B50C4615461E463D
:1029E0000021002200230189028B038C4FF6F87727
:1029F000394021434FF6FC473A4040F201173A4331
:102A00004FF6DD773B404FF6FF7707EA06172F4377
:102A10003B43018102830384F0BD0146888C7047EB
:102A200030B50246002000230024158A05EA010380
:102A3000958905EA010413B10CB1012000E00020E2
:102A400030BD000070B505460C46244885420ED0C6
:102A5000234885420BD0B5F1804F08D021488542EC
:102A600005D02148854202D02048854200D100E0AF
:102A700000BF208850B92389A28861882846FFF7C3
:102A80001DFEE188284600F0A9F825E020880428EA
:102A90000AD12389A28861882846FFF74FFEE18882
:102AA000284600F0A4F817E0208808280AD12389D6
:102AB000A28861882846FFF78DFEE188284600F04D
:102AC000A3F809E02389A28861882846FFF7CAFE97
:102AD000E188284600F0A1F870BD0000002C0140FC
:102AE000003401400004004000080040000C004099
:102AF000002101804180012181800021C18001816C
:102B000070471AB183890B43838102E083898B4329
:102B10008381704701894FF6F87211400181704737
:102B200070B5002400220023058C4FF6FF66354067
:102B30000584028C8388848B4FF68F752C404FF66A
:102B4000FC752C400D882C434FF6FF552A400D890B
:102B50004FF6FF7606EA05252A434D8806EA052545
:102B60002A43154DA84202D0144DA8421DD14FF260
:102B7000FF752A404D894FF6FF7606EA05252A4360
:102B80004FF6FF352A408D8806EA05252A434EF682
:102B9000FF752B404DF6FF752B408D8906EA051514
:102BA0002B43CD8906EA05152B4383808483CD888A
:102BB0008587028470BD0000002C01400034014074
:102BC0000021018041808180C1800181418181811A
:102BD000C18170478187704781847047028B4FF6AF
:102BE000F3731A400283028B0A4302837047028BFD
:102BF0004FF2FF331A400283028B4FF6FF7303EA52
:102C000001231A4302837047828B4FF6F3731A40F5
:102C10008283828B0A4382837047828B4FF2FF3319
:102C20001A408283828B4FF6FF7303EA01231A4313
:102C300082837047002202881D4B98420ED01D4BA4
:102C400098420BD0B0F1804F08D01B4B984205D072
:102C50001A4B984202D01A4B984204D14FF68F7308
:102C60001A404B881A43174B984207D0164B98428C
:102C700004D04FF6FF431A40CB881A4302808B885A
:102C800083850B8803850A4B98420BD0094B9842E9
:102C900008D00E4B984205D00D4B984202D00D4BF8
:102CA000984201D10B7A038601238382704700008A
:102CB000002C0140003401400004004000080040A6
:102CC000000C004000100040001400400040014093
:102CD00000440140004801401FB501210420FFF7D6
:102CE000CDFA1B48FFF716FF0020ADF80A00ADF83B
:102CF0000600C720ADF8080041F61F40ADF80400FB
:102D000000208DF80C0001A91148FFF793FF012165
:102D10000F48FFF74FFE012211460D48FFF7F1FE65
:102D20004FF4A060FFF752F81E208DF8000001203C
:102D30008DF8030002208DF8010001208DF80200BB
:102D40006846FFF70BF801210148FFF739FE1FBD68
:102D50000008004010B540F22551094800F03EF847
:102D600001280CD1064800F0F5F80649087001204A
:102D70000549087040F22551014800F007F810BDE0
:102D800000380140420000204300002010B500221E
:102D9000002340F66A14A14200D100BF0A120124A8
:102DA0009440A3B2DC43048010BD21B1828942F477
:102DB0000052828104E082894DF6FF731A408281BD
:102DC000704702460020B1F5007F00D100BF138894
:102DD0000B400BB1012000E00020704770B50246A7
:102DE000002400230025002040F66A16B14200D1DD
:102DF00000BFC1F3421501F01F03012606FA03F3D9
:102E0000012D02D19689334006E0022D02D1168AA7
:102E1000334001E0968A33400C12012606FA04F48E
:102E20001688344013B10CB1012000E0002070BDC1
:102E3000F0B50346002400260025002040F66A175E
:102E4000B94200D100BF1846C1F3421401F01F0679
:102E5000012707FA06F5012C01D10C3004E0022C01
:102E600001D1103000E014301AB107682F43076019
:102E700002E00768AF430760F0BD00002DE9F047AE
:102E800086B005460E460024A24600BFA146002794
:102E9000B08900B100BF2F462C8A4CF6FF70044069
:102EA000F08804432C82AC894EF6F3100440B088BD
:102EB00031890843718908430443AC81AC8A4FF6D9
:102EC000FF400440B0890443AC8201A8FFF7F6F943
:102ED0001F48874202D1DDF810A001E0DDF80CA008
:102EE000A88900F4004040B10AEBCA0000EB0A10C8
:102EF00031684900B0FBF1F807E00AEBCA0000EBCB
:102F00000A1031688900B0FBF1F86420B8FBF0F0DA
:102F100004012009642101FB1089A88900F4004004
:102F200040B1322000EBC900B0FBF1F000F0070027
:102F3000044308E0322000EB09106421B0FBF1F0FB
:102F400000F00F0004432C8106B0BDE8F0870000BC
:102F50000038014001468888C0F308007047C1F37B
:102F600008028280704700BFFEE7490050EAC12096
:102F700018BF04204A0D18BF40F0010040F2FF7254
:102F8000B2EB515F08BF40F00200012808BF0520E6
:102F9000704730380A2801D201207047002070475E
:102FA000FEF7B4FFFEF7A0FEFEF7B6FDFFF794FEB6
:102FB000FFF782FAFFF7EEF936A201210846FFF784
:102FC00084F836A201210220FFF77FF835A20A21FA
:102FD0000220FFF77AF834A201210320FFF775F8E9
:102FE00033A201210420FFF770F852E0FFF756FAF0
:102FF000012803D1FFF74CFA2F4908702E480078BA
:1030000040B22E490870084690F9000005280ADDF4
:10301000084690F90000C0F1050201230721184677
:10302000FFF720F807E00123244890F9002007214A
:103030001846FFF717F803232148B0F900200621AE
:103040000220FFF70FF805231E48B0F900200721E2
:103050000320FFF707F8194890F9000005280DDD57
:10306000164890F90000401F174931F810004242FD
:10307000052308210420FEF7F5FF0AE012480F4956
:1030800091F9001030F81120052308210420FEF7E3
:10309000E9FFABE747726164653A000044757479F3
:1030A0003A0000002500000053706565643A000096
:1030B0005461726765743A005400002035000020A6
:1030C0004C000020460000203600002010B50029EA
:1030D0000AD00878002807D005487844FEF7FCF8A5
:1030E000002801D0002010BD0248784410BD000027
:1030F0000E0B0000060B000010B500290AD008785E
:10310000002807D005487844FEF7E6F8002801D0EB
:10311000002010BD0248784410BD0000FE0A0000E7
:10312000F60A000090EA010F48BF81F0004100F16B
:103130006281421A3CBF801A89184FEAD0524FF080
:103140007F4C1CEA410FA2EBD15318BF9CEA026FDF
:1031500000F03B804FF0004C4CEA00204CEA01218B
:1031600021FA03FC10EB0C0C1ED202F1FF325FEAD5
:103170001C2040EBC25038BF70471CF07F0F4FEA55
:10318000400C18BFBCF17F4F38BF7047C3F120031C
:10319000994008BF20F00100BCF17F4F38BF704755
:1031A000A0F1C04000F01BB94FEA3C00000A40EB20
:1031B000C25028BF1CF0FF0F4FEA400CE6D018BFEA
:1031C000BCF17F4F38BF7047EAE79CEA026F05D039
:1031D00010EA5C0F08BF00F00040704710B500F027
:1031E000B8F800BF64FBBE3E41000B0ED3F19E0257
:1031F00008D950F400034FEA032323FA02F048BF32
:103200004042704710B500F0A4F800BF49922480F6
:10321000002070476FF0004282EA200070470000F3
:1032200010F0004148BF4042B0FA80F310FA03F2B8
:10323000C3F19D030BD051EAC35101EB1220530699
:1032400038BF704700F1010008BF20F0010070474F
:103250004FF47F0C1CEAD0121EBF1CEAD11392EA75
:103260000C0F93EA0C0F00F0478090EA010F48BF63
:1032700042F480724FF0004C4CEA00204CEA0121ED
:1032800002EB0302A0FB0113A2F50002002918BF04
:1032900043F001035B0028BF4FEA330342EB2242B5
:1032A0005FEA132C4CEBC2502EBFBCEB436FB2F560
:1032B0007C0F70474FEA036CBCF1004F08BF20F051
:1032C0000100B2F57C0F38BF70470BD582F0FF02CA
:1032D00012F5803FC8BF704700F1C040D8BF00F072
:1032E0000040704700F5000C5FEA4C0C48BF704787
:1032F000B0F1C04000F073B890EA010F0CEAD113AE
:1033000048BF42F48072624538BF634504D280EA08
:10331000010000F00040704710B500F01AF800BF3F
:103320008900013E00F007B800F009B85FEA410CDF
:103330005FEA1C6C08D080EA010000F050B85FEA38
:10334000400C5FEA1C6CF6D14FF00040A0F5800005
:1033500070470EF1020E2EF0030E5EF8044B24426D
:1033600004D44FEA4102B2F17F4F11D84FEA400333
:10337000B3F17F4F0CD80ED14FEAD07CB2F17F4F22
:103380000CEB4C0C0CF1020C08BF4CEBD17C04E0B4
:103390004FF0080C01E04FEAD17C0CEB4C0324FA0F
:1033A00003F404F00704B4F1040C06D20EEB840C11
:1033B000BDE810404CF0010C6047DFE80CF0070856
:1033C00002024FF00040A0F5800010BD0846420008
:1033D00018BFD2F1807288BF00F0004010BDFF21FD
:1033E00041EAD050C005704790EA010F48BF81F014
:1033F00000413FF59EAE421A04D882F00042A0EB95
:10340000020011444FEAD0524FF07F4C1CEA410FAA
:10341000A2EBD15318BF9CEA026F4AD04FF0004C88
:103420004CEA00204CEA012121FA03FCB0EB0C0C21
:103430000FD412F0FE0F36D05FEA4C001DD50012FB
:1034400040EBC25038BF70471CF03F0F18BF7047A9
:103450000BE0A2F101025FEA1C2040EBC25038BF32
:1034600070471CF07F0F18BF7047C3F120039940CD
:1034700014BF401E20F00100704780084FEA12235D
:1034800008BF7047B0FA80FCA2EB0C02CCF1280C0C
:1034900060FA0CF093EA122F04BF00EBC2507047A1
:1034A0004FEAC3707047130A5FEADC1008BF704729
:1034B000F6E79CEA026F04D010EA5C0F08BF002018
:1034C000704710B5FFF745FF40DFF63E81F0004042
:1034D0007047FDF70EBBFDF743BC00000000000085
:1034E00000000000000000000000000000F80000E4
:1034F0000000000000333000000000100C06100C2B
:103500000600000000000000000040C07840C078C5
:103510004000043F04043F040400007088FC0830AD
:103520000000001820FF211E0000F008F000E01845
:10353000000000211C031E211E0000F008887000FE
:1035400000001E2123241927211010160E00000050
:1035500000000000000000000000000000E018046F
:103560000200000000071820400000020418E000DC
:1035700000000040201807000000404080F080401C
:1035800040000202010F01020200000000F00000F2
:1035900000000101011F0101010000000000000006
:1035A000000080B07000000000000000000000007B
:1035B0000000000101010101010100000000000004
:1035C00000000030300000000000000000008060BB
:1035D0001804006018060100000000E01008081040
:1035E000E000000F102020100F00001010F8000065
:1035F00000000020203F20200000007008080888FC
:1036000070000030282422213000003008888848CB
:1036100030000018202020110E000000C02010F8FB
:10362000000000070424243F240000F808888808CC
:1036300008000019212020110E0000E010888818D1
:103640000000000F112020110E0000380808C838B3
:1036500008000000003F0000000000708808088893
:103660007000001C222121221C0000E0100808101C
:10367000E0000000312222110F00000000C0C00055
:10368000000000000030300000000000008000005A
:10369000000000008060000000000000804020105A
:1036A0000800000102040810200040404040404053
:1036B00040000404040404040400000810204080B6
:1036C00000000020100804020100007048080808EB
:1036D000F0000000003036010000C030C828E810BB
:1036E000E0000718272423140B000000C038E00076
:1036F0000000203C23020227382008F888888870C0
:103700000000203F202020110E00C03008080808CB
:103710003800071820202010080008F808080810B2
:10372000E000203F202020100F0008F88888E808DB
:103730001000203F20202320180008F88888E8087F
:103740001000203F200003000000C03008080838A7
:10375000000007182020221E020008F808000008B8
:10376000F808203F210101213F20000808F808083F
:1037700000000020203F2020000000000808F8087A
:103780000800C08080807F00000008F888C02818EA
:103790000800203F20012638200008F8080000001B
:1037A0000000203F20202020300008F8F800F8F822
:1037B0000800203F003F003F200008F830C000080C
:1037C000F808203F200007183F00E0100808081004
:1037D000E0000F10202020100F0008F8080808084B
:1037E000F000203F210101010000E010080808104E
:1037F000E0000F18242438504F0008F88888888883
:103800007000203F2000030C30200070880808085A
:1038100038000038202121221C00180808F8080868
:1038200018000000203F2000000008F808000008F1
:10383000F808001F202020201F000878880000C8FA
:103840003808000007380E010000F80800F80008EA
:10385000F800033C0700073C0300081868808068F4
:10386000180820302C03032C30200838C800C83832
:1038700008000000203F2000000010080808C83899
:1038800008002038262120201800000000FE020237
:1038900002000000007F40404000000C30C00000EB
:1038A0000000000000010638C00000020202FE0015
:1038B0000000004040407F000000000004020202BF
:1038C00004000000000000000000000000000000F4
:1038D00000008080808080808080000202040000E0
:1038E00000000000000000000000000080808080D8
:1038F00000000019242222223F2008F800808000C6
:103900000000003F112020110E0000000080808088
:103910000000000E1120202011000000008080888F
:10392000F800000E112020103F20000080808080D1
:103930000000001F222222221300008080F08888CD
:1039400088180020203F2020000000008080808018
:103950008000006B94949493600008F8008080804D
:103960000000203F210000203F20008098980000A8
:1039700000000020203F20200000000000809898D8
:10398000000000C08080807F000008F80000808078
:103990008000203F24022D302000000808F800009D
:1039A00000000020203F2020000080808080808058
:1039B0008000203F20003F20003F808000808080EA
:1039C0000000203F210000203F20000080808080F8
:1039D0000000001F202020201F0080800080800029
:1039E000000080FFA12020110E00000000808080D8
:1039F0008000000E112020A0FF8080808000808049
:103A0000800020203F212000010000008080808075
:103A100080000033242424241900008080E080806A
:103A200000000000001F20200000808000000080B7
:103A30008000001F202020103F2080808000008018
:103A4000808000010E300806010080800080008028
:103A500080800F300C030C300F00008080008080CD
:103A600080000020312E0E312000808080000080F8
:103A7000808080818E7018060100008080808080A8
:103A800080000021302C2221300000000000807CCA
:103A9000020200000000003F404000000000FF0064
:103AA000000000000000FF0000000002027C800017
:103AB00000000040403F000000000006010102023B
:103AC00004040000000000000000000000000000EE
:103AD0000000000030313233343536373839414256
:103AE0004344454640305800303132333435363760
:103AF000383961626364656640307800040000080C
:103B0000000000000000000200010000103031320F
:103B100033343536373839616263646566787000EE
:103B200030313233343536373839414243444546F3
:103B30005850000002400000000000A000000000FB
:103B400005400000000000C8000000000C4000001C
:103B50000000409C00000000194000000020BCBE96
:103B60000000000034400000BFC91B8E00000004AC
:103B7000B5400000504BCFD06607E2CF01000000F7
:103B80006C4100003E8251AADFEEA7340100000024
:103B9000D9420000DCB5A0E23A301F97FFFFFFFFDB
:103BA000B4450000FD25A0C8E9A3C14FFFFFFFFFFA
:103BB000FF3F00000000008000000000FF3F000009
:103BC0000000008000000000143D000800000020FC
:103BD00058000000280100086C3D00085800002033
:103BE00060060000440100081C00000043000000C3
:103BF000F8FFFFFF0C0000000E0000000F000000A7
:103C00002E0000001001000043000000F8FFFFFF3D
:103C100000404040404040404040414141414140DF
:103C20004040404040404040404040404040404094
:103C30004005020202020202020202020202020223
:103C40000220202020202020202020020202020228
:103C50000202909090909090101010101010101080
:103C6000101010101010101010101010020202028C
:103C700002028888888888880808080808080808D0
:103C800008080808080808080808080802020202CC
:103C900040000000000000000000000000000000E4
:103CA0000000000000000000000000000000000014
:103CB0000000000000000000000000000000000004
:103CC00000000000000000000000000000000000F4
:103CD00000000000000000000000000000000000E4
:103CE00000000000000000000000000000000000D4
:103CF00000000000000000000000000000000000C4
:103D000000000000000000000000000000000000B3
:103D1000000000000000000001020304010203048F
:103D20000607080902040608000000000000000061
:103D30000000000000000000000000000000C03F84
:103D4000CDCCCC3D00000000000000001E003C0077
:103D50005A007800960000000000000000000000FB
:0C3D600000000000000000000000000057
:04000005080000ED02
:00000001FF
